{
  "contractName": "MultiSigWalletBCC",
  "abi": [
    {
      "inputs": [],
      "stateMutability": "payable",
      "type": "constructor"
    },
    {
      "anonymous": false,
      "inputs": [
        {
          "indexed": false,
          "internalType": "address",
          "name": "from",
          "type": "address"
        },
        {
          "indexed": false,
          "internalType": "uint256",
          "name": "amount",
          "type": "uint256"
        }
      ],
      "name": "FundsDeposited",
      "type": "event"
    },
    {
      "anonymous": false,
      "inputs": [
        {
          "indexed": false,
          "internalType": "address",
          "name": "newOwner",
          "type": "address"
        }
      ],
      "name": "NewOwnerAdded",
      "type": "event"
    },
    {
      "anonymous": false,
      "inputs": [
        {
          "indexed": true,
          "internalType": "address",
          "name": "previousOwner",
          "type": "address"
        },
        {
          "indexed": true,
          "internalType": "address",
          "name": "newOwner",
          "type": "address"
        }
      ],
      "name": "OwnershipTransferred",
      "type": "event"
    },
    {
      "anonymous": false,
      "inputs": [
        {
          "indexed": false,
          "internalType": "uint256",
          "name": "transactionId",
          "type": "uint256"
        },
        {
          "indexed": false,
          "internalType": "address",
          "name": "to",
          "type": "address"
        },
        {
          "indexed": false,
          "internalType": "uint256",
          "name": "amount",
          "type": "uint256"
        },
        {
          "indexed": false,
          "internalType": "address",
          "name": "createdBy",
          "type": "address"
        },
        {
          "indexed": false,
          "internalType": "address",
          "name": "executedBy",
          "type": "address"
        }
      ],
      "name": "TransactionCompleted",
      "type": "event"
    },
    {
      "anonymous": false,
      "inputs": [
        {
          "indexed": false,
          "internalType": "uint256",
          "name": "nextTransactionId",
          "type": "uint256"
        },
        {
          "indexed": false,
          "internalType": "address",
          "name": "createdBy",
          "type": "address"
        },
        {
          "indexed": false,
          "internalType": "address",
          "name": "to",
          "type": "address"
        },
        {
          "indexed": false,
          "internalType": "uint256",
          "name": "amount",
          "type": "uint256"
        }
      ],
      "name": "TransactionCreated",
      "type": "event"
    },
    {
      "anonymous": false,
      "inputs": [
        {
          "indexed": false,
          "internalType": "uint256",
          "name": "transactionId",
          "type": "uint256"
        },
        {
          "indexed": false,
          "internalType": "address",
          "name": "signer",
          "type": "address"
        }
      ],
      "name": "TransactionSigned",
      "type": "event"
    },
    {
      "inputs": [],
      "name": "owner",
      "outputs": [
        {
          "internalType": "address",
          "name": "",
          "type": "address"
        }
      ],
      "stateMutability": "view",
      "type": "function"
    },
    {
      "inputs": [],
      "name": "quorum",
      "outputs": [
        {
          "internalType": "uint256",
          "name": "",
          "type": "uint256"
        }
      ],
      "stateMutability": "view",
      "type": "function"
    },
    {
      "inputs": [],
      "name": "renounceOwnership",
      "outputs": [],
      "stateMutability": "nonpayable",
      "type": "function"
    },
    {
      "inputs": [],
      "name": "tokenContract",
      "outputs": [
        {
          "internalType": "contract BrazilCarbonCredit",
          "name": "",
          "type": "address"
        }
      ],
      "stateMutability": "view",
      "type": "function"
    },
    {
      "inputs": [
        {
          "internalType": "address",
          "name": "newOwner",
          "type": "address"
        }
      ],
      "name": "transferOwnership",
      "outputs": [],
      "stateMutability": "nonpayable",
      "type": "function"
    },
    {
      "stateMutability": "payable",
      "type": "receive"
    },
    {
      "inputs": [
        {
          "internalType": "address",
          "name": "addr",
          "type": "address"
        }
      ],
      "name": "activateOwner",
      "outputs": [],
      "stateMutability": "nonpayable",
      "type": "function"
    },
    {
      "inputs": [
        {
          "internalType": "address",
          "name": "newOwner",
          "type": "address"
        }
      ],
      "name": "addOwner",
      "outputs": [],
      "stateMutability": "nonpayable",
      "type": "function"
    },
    {
      "inputs": [
        {
          "internalType": "uint256",
          "name": "amount",
          "type": "uint256"
        },
        {
          "internalType": "address payable",
          "name": "to",
          "type": "address"
        }
      ],
      "name": "createTransfer",
      "outputs": [],
      "stateMutability": "nonpayable",
      "type": "function"
    },
    {
      "inputs": [
        {
          "internalType": "address",
          "name": "addr",
          "type": "address"
        }
      ],
      "name": "deactivateOwner",
      "outputs": [],
      "stateMutability": "nonpayable",
      "type": "function"
    },
    {
      "inputs": [
        {
          "internalType": "uint256",
          "name": "id",
          "type": "uint256"
        }
      ],
      "name": "executeTransaction",
      "outputs": [],
      "stateMutability": "nonpayable",
      "type": "function"
    },
    {
      "inputs": [
        {
          "internalType": "contract BrazilCarbonCredit",
          "name": "_tokenContract",
          "type": "address"
        }
      ],
      "name": "setTokenContract",
      "outputs": [],
      "stateMutability": "nonpayable",
      "type": "function"
    },
    {
      "inputs": [
        {
          "internalType": "uint256",
          "name": "id",
          "type": "uint256"
        }
      ],
      "name": "signTransation",
      "outputs": [],
      "stateMutability": "nonpayable",
      "type": "function"
    },
    {
      "inputs": [],
      "name": "withdraw",
      "outputs": [],
      "stateMutability": "nonpayable",
      "type": "function"
    },
    {
      "inputs": [],
      "name": "getBalance",
      "outputs": [
        {
          "internalType": "uint256",
          "name": "",
          "type": "uint256"
        }
      ],
      "stateMutability": "view",
      "type": "function"
    },
    {
      "inputs": [],
      "name": "getPendingTransactions",
      "outputs": [
        {
          "internalType": "uint256[]",
          "name": "",
          "type": "uint256[]"
        }
      ],
      "stateMutability": "view",
      "type": "function"
    },
    {
      "inputs": [],
      "name": "getCompletedTransactions",
      "outputs": [
        {
          "internalType": "uint256[]",
          "name": "",
          "type": "uint256[]"
        }
      ],
      "stateMutability": "view",
      "type": "function"
    },
    {
      "inputs": [],
      "name": "getTokenBalance",
      "outputs": [
        {
          "internalType": "uint256",
          "name": "",
          "type": "uint256"
        }
      ],
      "stateMutability": "view",
      "type": "function"
    },
    {
      "inputs": [
        {
          "internalType": "uint256",
          "name": "transactionId",
          "type": "uint256"
        }
      ],
      "name": "getTransactionSignatureCount",
      "outputs": [
        {
          "internalType": "uint256",
          "name": "",
          "type": "uint256"
        }
      ],
      "stateMutability": "view",
      "type": "function"
    }
  ],
  "bytecode": "0x60806040526000600160146101000a81548160ff0219169083151502179055506200003f62000033620000f160201b60201c565b620000f960201b60201c565b33600560006101000a81548173ffffffffffffffffffffffffffffffffffffffff021916908373ffffffffffffffffffffffffffffffffffffffff1602179055506001600660003373ffffffffffffffffffffffffffffffffffffffff1673ffffffffffffffffffffffffffffffffffffffff16815260200190815260200160002060006101000a81548160ff02191690836002811115620000e657620000e5620001bd565b5b0217905550620001ec565b600033905090565b60008060009054906101000a900473ffffffffffffffffffffffffffffffffffffffff169050816000806101000a81548173ffffffffffffffffffffffffffffffffffffffff021916908373ffffffffffffffffffffffffffffffffffffffff1602179055508173ffffffffffffffffffffffffffffffffffffffff168173ffffffffffffffffffffffffffffffffffffffff167f8be0079c531659141344cd1fd0a4f28419497f9722a3daafe3b4186f6b6457e060405160405180910390a35050565b7f4e487b7100000000000000000000000000000000000000000000000000000000600052602160045260246000fd5b61288780620001fc6000396000f3fe60806040526004361061010d5760003560e01c806382b2e25711610095578063bbcd5bbe11610064578063bbcd5bbe14610363578063d11db83f1461038c578063e8b7d430146103b7578063ee22610b146103e0578063f2fde38b146104095761014d565b806382b2e257146102b95780638da5cb5b146102e45780639187f65e1461030f578063ae5a9d17146103385761014d565b8063459a3f78116100dc578063459a3f78146101e85780634c12fa471461022557806355a373d61461024e5780637065cb4814610279578063715018a6146102a25761014d565b8063026eb9f21461015257806312065fe01461017b5780631703a018146101a65780633ccfd60b146101d15761014d565b3661014d577f543ba50a5eec5e6178218e364b1d0f396157b3c8fa278522c2cb7fd99407d4743334604051610143929190611bd4565b60405180910390a1005b600080fd5b34801561015e57600080fd5b5061017960048036038101906101749190611c2e565b610432565b005b34801561018757600080fd5b50610190610589565b60405161019d9190611c5b565b60405180910390f35b3480156101b257600080fd5b506101bb610591565b6040516101c89190611c5b565b60405180910390f35b3480156101dd57600080fd5b506101e6610596565b005b3480156101f457600080fd5b5061020f600480360381019061020a9190611ca2565b6106b1565b60405161021c9190611c5b565b60405180910390f35b34801561023157600080fd5b5061024c60048036038101906102479190611d0d565b610776565b005b34801561025a57600080fd5b50610263610a77565b6040516102709190611dac565b60405180910390f35b34801561028557600080fd5b506102a0600480360381019061029b9190611c2e565b610a9d565b005b3480156102ae57600080fd5b506102b7610cde565b005b3480156102c557600080fd5b506102ce610d66565b6040516102db9190611c5b565b60405180910390f35b3480156102f057600080fd5b506102f9610e09565b6040516103069190611dc7565b60405180910390f35b34801561031b57600080fd5b5061033660048036038101906103319190611c2e565b610e32565b005b34801561034457600080fd5b5061034d610f89565b60405161035a9190611ea0565b60405180910390f35b34801561036f57600080fd5b5061038a60048036038101906103859190611f00565b610fe1565b005b34801561039857600080fd5b506103a161110b565b6040516103ae9190611ea0565b60405180910390f35b3480156103c357600080fd5b506103de60048036038101906103d99190611ca2565b611163565b005b3480156103ec57600080fd5b5061040760048036038101906104029190611ca2565b6114dc565b005b34801561041557600080fd5b50610430600480360381019061042b9190611c2e565b6119b6565b005b61043a611aae565b73ffffffffffffffffffffffffffffffffffffffff16610458610e09565b73ffffffffffffffffffffffffffffffffffffffff16146104ae576040517f08c379a00000000000000000000000000000000000000000000000000000000081526004016104a590611f8a565b60405180910390fd5b600073ffffffffffffffffffffffffffffffffffffffff168173ffffffffffffffffffffffffffffffffffffffff16141561051e576040517f08c379a000000000000000000000000000000000000000000000000000000000815260040161051590611ff6565b60405180910390fd5b6002600660008373ffffffffffffffffffffffffffffffffffffffff1673ffffffffffffffffffffffffffffffffffffffff16815260200190815260200160002060006101000a81548160ff0219169083600281111561058157610580612016565b5b021790555050565b600047905090565b600281565b61059e611aae565b73ffffffffffffffffffffffffffffffffffffffff166105bc610e09565b73ffffffffffffffffffffffffffffffffffffffff1614610612576040517f08c379a000000000000000000000000000000000000000000000000000000000815260040161060990611f8a565b60405180910390fd5b60004711610655576040517f08c379a000000000000000000000000000000000000000000000000000000000815260040161064c90612091565b60405180910390fd5b6000479050804761066691906120e0565b503373ffffffffffffffffffffffffffffffffffffffff166108fc829081150290604051600060405180830381858888f193505050501580156106ad573d6000803e3d6000fd5b5050565b60008073ffffffffffffffffffffffffffffffffffffffff166007600084815260200190815260200160002060020160009054906101000a900473ffffffffffffffffffffffffffffffffffffffff1673ffffffffffffffffffffffffffffffffffffffff161415610758576040517f08c379a000000000000000000000000000000000000000000000000000000000815260040161074f90612160565b60405180910390fd5b60076000838152602001908152602001600020600501549050919050565b6001600281111561078a57610789612016565b5b600660003373ffffffffffffffffffffffffffffffffffffffff1673ffffffffffffffffffffffffffffffffffffffff16815260200190815260200160002060009054906101000a900460ff1660028111156107e9576107e8612016565b5b14610829576040517f08c379a0000000000000000000000000000000000000000000000000000000008152600401610820906121f2565b60405180910390fd5b6002600081548092919061083c90612212565b91905055506040518060e0016040528060025481526020018381526020018273ffffffffffffffffffffffffffffffffffffffff168152602001600160009054906101000a900473ffffffffffffffffffffffffffffffffffffffff1673ffffffffffffffffffffffffffffffffffffffff1681526020013373ffffffffffffffffffffffffffffffffffffffff1681526020016000815260200160001515815250600760006002548152602001908152602001600020600082015181600001556020820151816001015560408201518160020160006101000a81548173ffffffffffffffffffffffffffffffffffffffff021916908373ffffffffffffffffffffffffffffffffffffffff16021790555060608201518160030160006101000a81548173ffffffffffffffffffffffffffffffffffffffff021916908373ffffffffffffffffffffffffffffffffffffffff16021790555060808201518160040160006101000a81548173ffffffffffffffffffffffffffffffffffffffff021916908373ffffffffffffffffffffffffffffffffffffffff16021790555060a0820151816005015560c08201518160060160006101000a81548160ff021916908315150217905550905050600360025490806001815401808255809150506001900390600052602060002001600090919091909150557fe9097a4f4eddc0e5906640fcd9e1193c9db52771536ca4c8b06ab4c40aa045d2600254338385604051610a6b949392919061227c565b60405180910390a15050565b600160009054906101000a900473ffffffffffffffffffffffffffffffffffffffff1681565b610aa5611aae565b73ffffffffffffffffffffffffffffffffffffffff16610ac3610e09565b73ffffffffffffffffffffffffffffffffffffffff1614610b19576040517f08c379a0000000000000000000000000000000000000000000000000000000008152600401610b1090611f8a565b60405180910390fd5b600073ffffffffffffffffffffffffffffffffffffffff168173ffffffffffffffffffffffffffffffffffffffff161415610b89576040517f08c379a0000000000000000000000000000000000000000000000000000000008152600401610b8090611ff6565b60405180910390fd5b60006002811115610b9d57610b9c612016565b5b600660008373ffffffffffffffffffffffffffffffffffffffff1673ffffffffffffffffffffffffffffffffffffffff16815260200190815260200160002060009054906101000a900460ff166002811115610bfc57610bfb612016565b5b14610c3c576040517f08c379a0000000000000000000000000000000000000000000000000000000008152600401610c339061230d565b60405180910390fd5b6001600660008373ffffffffffffffffffffffffffffffffffffffff1673ffffffffffffffffffffffffffffffffffffffff16815260200190815260200160002060006101000a81548160ff02191690836002811115610c9f57610c9e612016565b5b02179055507f6e4e2a7c0e1576d48aeabd633d094f622d4f046286fec8b9045dd7f5c9fb087d81604051610cd39190611dc7565b60405180910390a150565b610ce6611aae565b73ffffffffffffffffffffffffffffffffffffffff16610d04610e09565b73ffffffffffffffffffffffffffffffffffffffff1614610d5a576040517f08c379a0000000000000000000000000000000000000000000000000000000008152600401610d5190611f8a565b60405180910390fd5b610d646000611ab6565b565b6000600160009054906101000a900473ffffffffffffffffffffffffffffffffffffffff1673ffffffffffffffffffffffffffffffffffffffff166370a08231306040518263ffffffff1660e01b8152600401610dc39190611dc7565b602060405180830381865afa158015610de0573d6000803e3d6000fd5b505050506040513d601f19601f82011682018060405250810190610e049190612342565b905090565b60008060009054906101000a900473ffffffffffffffffffffffffffffffffffffffff16905090565b610e3a611aae565b73ffffffffffffffffffffffffffffffffffffffff16610e58610e09565b73ffffffffffffffffffffffffffffffffffffffff1614610eae576040517f08c379a0000000000000000000000000000000000000000000000000000000008152600401610ea590611f8a565b60405180910390fd5b600073ffffffffffffffffffffffffffffffffffffffff168173ffffffffffffffffffffffffffffffffffffffff161415610f1e576040517f08c379a0000000000000000000000000000000000000000000000000000000008152600401610f1590611ff6565b60405180910390fd5b6001600660008373ffffffffffffffffffffffffffffffffffffffff1673ffffffffffffffffffffffffffffffffffffffff16815260200190815260200160002060006101000a81548160ff02191690836002811115610f8157610f80612016565b5b021790555050565b60606004805480602002602001604051908101604052809291908181526020018280548015610fd757602002820191906000526020600020905b815481526020019060010190808311610fc3575b5050505050905090565b610fe9611aae565b73ffffffffffffffffffffffffffffffffffffffff16611007610e09565b73ffffffffffffffffffffffffffffffffffffffff161461105d576040517f08c379a000000000000000000000000000000000000000000000000000000000815260040161105490611f8a565b60405180910390fd5b600160149054906101000a900460ff16156110ad576040517f08c379a00000000000000000000000000000000000000000000000000000000081526004016110a4906123e1565b60405180910390fd5b80600160006101000a81548173ffffffffffffffffffffffffffffffffffffffff021916908373ffffffffffffffffffffffffffffffffffffffff16021790555060018060146101000a81548160ff02191690831515021790555050565b6060600380548060200260200160405190810160405280929190818152602001828054801561115957602002820191906000526020600020905b815481526020019060010190808311611145575b5050505050905090565b6001600281111561117757611176612016565b5b600660003373ffffffffffffffffffffffffffffffffffffffff1673ffffffffffffffffffffffffffffffffffffffff16815260200190815260200160002060009054906101000a900460ff1660028111156111d6576111d5612016565b5b14611216576040517f08c379a000000000000000000000000000000000000000000000000000000000815260040161120d906121f2565b60405180910390fd5b600073ffffffffffffffffffffffffffffffffffffffff166007600083815260200190815260200160002060020160009054906101000a900473ffffffffffffffffffffffffffffffffffffffff1673ffffffffffffffffffffffffffffffffffffffff1614156112bc576040517f08c379a00000000000000000000000000000000000000000000000000000000081526004016112b390612160565b60405180910390fd5b3373ffffffffffffffffffffffffffffffffffffffff166007600083815260200190815260200160002060040160009054906101000a900473ffffffffffffffffffffffffffffffffffffffff1673ffffffffffffffffffffffffffffffffffffffff161415611361576040517f08c379a000000000000000000000000000000000000000000000000000000000815260040161135890612473565b60405180910390fd5b600015156008600083815260200190815260200160002060003373ffffffffffffffffffffffffffffffffffffffff1673ffffffffffffffffffffffffffffffffffffffff16815260200190815260200160002060009054906101000a900460ff16151514611405576040517f08c379a00000000000000000000000000000000000000000000000000000000081526004016113fc90612505565b60405180910390fd5b600060076000838152602001908152602001600020905060016008600084815260200190815260200160002060003373ffffffffffffffffffffffffffffffffffffffff1673ffffffffffffffffffffffffffffffffffffffff16815260200190815260200160002060006101000a81548160ff02191690831515021790555080600501600081548092919061149a90612212565b91905055507f737f6609fa194738ed162051f994c6e9599a830846ea9d72d6501d79871e098182336040516114d0929190612525565b60405180910390a15050565b600160028111156114f0576114ef612016565b5b600660003373ffffffffffffffffffffffffffffffffffffffff1673ffffffffffffffffffffffffffffffffffffffff16815260200190815260200160002060009054906101000a900460ff16600281111561154f5761154e612016565b5b1461158f576040517f08c379a0000000000000000000000000000000000000000000000000000000008152600401611586906121f2565b60405180910390fd5b600073ffffffffffffffffffffffffffffffffffffffff166007600083815260200190815260200160002060020160009054906101000a900473ffffffffffffffffffffffffffffffffffffffff1673ffffffffffffffffffffffffffffffffffffffff161415611635576040517f08c379a000000000000000000000000000000000000000000000000000000000815260040161162c90612160565b60405180910390fd5b600015156007600083815260200190815260200160002060060160009054906101000a900460ff1615151461169f576040517f08c379a0000000000000000000000000000000000000000000000000000000008152600401611696906125c0565b60405180910390fd5b6002600760008381526020019081526020016000206005015410156116f9576040517f08c379a00000000000000000000000000000000000000000000000000000000081526004016116f090612652565b60405180910390fd5b6007600082815260200190815260200160002060010154600160009054906101000a900473ffffffffffffffffffffffffffffffffffffffff1673ffffffffffffffffffffffffffffffffffffffff166370a08231306040518263ffffffff1660e01b815260040161176b9190611dc7565b602060405180830381865afa158015611788573d6000803e3d6000fd5b505050506040513d601f19601f820116820180604052508101906117ac9190612342565b10156117ed576040517f08c379a00000000000000000000000000000000000000000000000000000000081526004016117e4906126be565b60405180910390fd5b60016007600083815260200190815260200160002060060160006101000a81548160ff02191690831515021790555060006007600083815260200190815260200160002060020160009054906101000a900473ffffffffffffffffffffffffffffffffffffffff169050600060076000848152602001908152602001600020600101549050600160009054906101000a900473ffffffffffffffffffffffffffffffffffffffff1673ffffffffffffffffffffffffffffffffffffffff1663a9059cbb83836040518363ffffffff1660e01b81526004016118cf9291906126de565b6020604051808303816000875af11580156118ee573d6000803e3d6000fd5b505050506040513d601f19601f82011682018060405250810190611912919061273f565b5060048390806001815401808255809150506001900390600052602060002001600090919091909150557f619ec1be2a054aa3b93eabd8626ae2b2539841a9572c4e1a93ab2227ed508c678383836007600088815260200190815260200160002060040160009054906101000a900473ffffffffffffffffffffffffffffffffffffffff16336040516119a995949392919061276c565b60405180910390a1505050565b6119be611aae565b73ffffffffffffffffffffffffffffffffffffffff166119dc610e09565b73ffffffffffffffffffffffffffffffffffffffff1614611a32576040517f08c379a0000000000000000000000000000000000000000000000000000000008152600401611a2990611f8a565b60405180910390fd5b600073ffffffffffffffffffffffffffffffffffffffff168173ffffffffffffffffffffffffffffffffffffffff161415611aa2576040517f08c379a0000000000000000000000000000000000000000000000000000000008152600401611a9990612831565b60405180910390fd5b611aab81611ab6565b50565b600033905090565b60008060009054906101000a900473ffffffffffffffffffffffffffffffffffffffff169050816000806101000a81548173ffffffffffffffffffffffffffffffffffffffff021916908373ffffffffffffffffffffffffffffffffffffffff1602179055508173ffffffffffffffffffffffffffffffffffffffff168173ffffffffffffffffffffffffffffffffffffffff167f8be0079c531659141344cd1fd0a4f28419497f9722a3daafe3b4186f6b6457e060405160405180910390a35050565b600073ffffffffffffffffffffffffffffffffffffffff82169050919050565b6000611ba582611b7a565b9050919050565b611bb581611b9a565b82525050565b6000819050919050565b611bce81611bbb565b82525050565b6000604082019050611be96000830185611bac565b611bf66020830184611bc5565b9392505050565b600080fd5b611c0b81611b9a565b8114611c1657600080fd5b50565b600081359050611c2881611c02565b92915050565b600060208284031215611c4457611c43611bfd565b5b6000611c5284828501611c19565b91505092915050565b6000602082019050611c706000830184611bc5565b92915050565b611c7f81611bbb565b8114611c8a57600080fd5b50565b600081359050611c9c81611c76565b92915050565b600060208284031215611cb857611cb7611bfd565b5b6000611cc684828501611c8d565b91505092915050565b6000611cda82611b7a565b9050919050565b611cea81611ccf565b8114611cf557600080fd5b50565b600081359050611d0781611ce1565b92915050565b60008060408385031215611d2457611d23611bfd565b5b6000611d3285828601611c8d565b9250506020611d4385828601611cf8565b9150509250929050565b6000819050919050565b6000611d72611d6d611d6884611b7a565b611d4d565b611b7a565b9050919050565b6000611d8482611d57565b9050919050565b6000611d9682611d79565b9050919050565b611da681611d8b565b82525050565b6000602082019050611dc16000830184611d9d565b92915050565b6000602082019050611ddc6000830184611bac565b92915050565b600081519050919050565b600082825260208201905092915050565b6000819050602082019050919050565b611e1781611bbb565b82525050565b6000611e298383611e0e565b60208301905092915050565b6000602082019050919050565b6000611e4d82611de2565b611e578185611ded565b9350611e6283611dfe565b8060005b83811015611e93578151611e7a8882611e1d565b9750611e8583611e35565b925050600181019050611e66565b5085935050505092915050565b60006020820190508181036000830152611eba8184611e42565b905092915050565b6000611ecd82611b9a565b9050919050565b611edd81611ec2565b8114611ee857600080fd5b50565b600081359050611efa81611ed4565b92915050565b600060208284031215611f1657611f15611bfd565b5b6000611f2484828501611eeb565b91505092915050565b600082825260208201905092915050565b7f4f776e61626c653a2063616c6c6572206973206e6f7420746865206f776e6572600082015250565b6000611f74602083611f2d565b9150611f7f82611f3e565b602082019050919050565b60006020820190508181036000830152611fa381611f67565b9050919050565b7f496e76616c696420616464726573732100000000000000000000000000000000600082015250565b6000611fe0601083611f2d565b9150611feb82611faa565b602082019050919050565b6000602082019050818103600083015261200f81611fd3565b9050919050565b7f4e487b7100000000000000000000000000000000000000000000000000000000600052602160045260246000fd5b7f496e737566696369656e742066756e6473210000000000000000000000000000600082015250565b600061207b601283611f2d565b915061208682612045565b602082019050919050565b600060208201905081810360008301526120aa8161206e565b9050919050565b7f4e487b7100000000000000000000000000000000000000000000000000000000600052601160045260246000fd5b60006120eb82611bbb565b91506120f683611bbb565b925082821015612109576121086120b1565b5b828203905092915050565b7f5472616e73616374696f6e20646f6573206e6f74206578697374210000000000600082015250565b600061214a601b83611f2d565b915061215582612114565b602082019050919050565b600060208201905081810360008301526121798161213d565b9050919050565b7f596f75206d7573742068617665206f776e657220617574686f72697a6174696f60008201527f6e20746f20637265617465207472616e73616374696f6e210000000000000000602082015250565b60006121dc603883611f2d565b91506121e782612180565b604082019050919050565b6000602082019050818103600083015261220b816121cf565b9050919050565b600061221d82611bbb565b91507fffffffffffffffffffffffffffffffffffffffffffffffffffffffffffffffff8214156122505761224f6120b1565b5b600182019050919050565b600061226682611d79565b9050919050565b6122768161225b565b82525050565b60006080820190506122916000830187611bc5565b61229e6020830186611bac565b6122ab604083018561226d565b6122b86060830184611bc5565b95945050505050565b7f4164647265737320616c726561647920616e206f776e65722100000000000000600082015250565b60006122f7601983611f2d565b9150612302826122c1565b602082019050919050565b60006020820190508181036000830152612326816122ea565b9050919050565b60008151905061233c81611c76565b92915050565b60006020828403121561235857612357611bfd565b5b60006123668482850161232d565b91505092915050565b7f53657420636f6e747261637420746f6b656e206973206e6f7420616c6c6f776560008201527f6421000000000000000000000000000000000000000000000000000000000000602082015250565b60006123cb602283611f2d565b91506123d68261236f565b604082019050919050565b600060208201905081810360008301526123fa816123be565b9050919050565b7f5472616e73616374696f6e2063726561746f722063616e6e6f74207369676e2060008201527f7472616e73616374696f6e210000000000000000000000000000000000000000602082015250565b600061245d602c83611f2d565b915061246882612401565b604082019050919050565b6000602082019050818103600083015261248c81612450565b9050919050565b7f43616e6e6f74207369676e207472616e73616374696f6e206d6f72652074686160008201527f6e206f6e63652100000000000000000000000000000000000000000000000000602082015250565b60006124ef602783611f2d565b91506124fa82612493565b604082019050919050565b6000602082019050818103600083015261251e816124e2565b9050919050565b600060408201905061253a6000830185611bc5565b6125476020830184611bac565b9392505050565b7f5472616e73616374696f6e732068617320616c7265616479206265656e20636f60008201527f6d706c6574656421000000000000000000000000000000000000000000000000602082015250565b60006125aa602883611f2d565b91506125b58261254e565b604082019050919050565b600060208201905081810360008301526125d98161259d565b9050919050565b7f5472616e73616374696f6e207265717569726573206d6f7265207369676e617460008201527f7572657321000000000000000000000000000000000000000000000000000000602082015250565b600061263c602583611f2d565b9150612647826125e0565b604082019050919050565b6000602082019050818103600083015261266b8161262f565b9050919050565b7f496e73756666696369656e742062616c616e63652e0000000000000000000000600082015250565b60006126a8601583611f2d565b91506126b382612672565b602082019050919050565b600060208201905081810360008301526126d78161269b565b9050919050565b60006040820190506126f3600083018561226d565b6127006020830184611bc5565b9392505050565b60008115159050919050565b61271c81612707565b811461272757600080fd5b50565b60008151905061273981612713565b92915050565b60006020828403121561275557612754611bfd565b5b60006127638482850161272a565b91505092915050565b600060a0820190506127816000830188611bc5565b61278e602083018761226d565b61279b6040830186611bc5565b6127a86060830185611bac565b6127b56080830184611bac565b9695505050505050565b7f4f776e61626c653a206e6577206f776e657220697320746865207a65726f206160008201527f6464726573730000000000000000000000000000000000000000000000000000602082015250565b600061281b602683611f2d565b9150612826826127bf565b604082019050919050565b6000602082019050818103600083015261284a8161280e565b905091905056fea264697066735822122005854f5b837221c8355a32a1e1bd40685c219e38920b4e5a7d42900db0fef40a64736f6c634300080a0033",
  "immutableReferences": {},
  "source": "// SPDX-License-Identifier: MIT\npragma solidity >=0.4.22 <0.9.0;\n\nimport \"./BrazilCarbonCredit.sol\";\nimport \"@openzeppelin/contracts/access/Ownable.sol\";\n\ncontract MultiSigWalletBCC is Ownable{\n    // Types\n    enum Authorization {\n        NONE,\n        OWNER,\n        DEACTIVATED\n    }\n\n    struct Transaction {\n        uint id; \n        uint amount;\n        address payable to;\n        address tokenContract;\n        address createdBy;\n        uint signatureCount;\n        bool completed;\n    }\n\n    // Public variables\n    BrazilCarbonCredit public tokenContract;\n    uint public constant quorum = 2;\n\n    // Internal variables\n    bool internal contractSeted = false;\n\n    // Private variables\n    uint private nextTransactionId;\n    uint[] private _pendingTransactions;\n    uint[] private completed;\n    address private _admin;\n\n    // Mappings\n    mapping(address => Authorization) private owners;\n    mapping(uint => Transaction) transactions;\n    mapping(uint => mapping(address => bool)) signatures;\n\n    // Modifiers\n    modifier canContractSet() {\n        require(!contractSeted, \"Set contract token is not allowed!\");\n        _;\n    }\n\n    modifier isValidOwner() {\n        require(owners[msg.sender] == Authorization.OWNER,\n        \"You must have owner authorization to create transaction!\");\n        _;\n    }\n\n    // Events\n    event TransactionCreated(uint nextTransactionId, address createdBy, address to,  uint amount);\n    event TransactionCompleted(uint transactionId, address to, uint amount, address createdBy, address executedBy);\n    event TransactionSigned(uint transactionId, address signer);\n    event NewOwnerAdded(address newOwner);\n    event FundsDeposited(address from, uint amount);\n\n    // Constructor\n    constructor() payable {\n        _admin = msg.sender;\n        owners[msg.sender] = Authorization.OWNER;\n    }\n\n    // Receive function\n    receive() external payable{\n        emit FundsDeposited(msg.sender, msg.value);\n    }\n\n    // External functions\n    function activateOwner(address addr) external onlyOwner {\n        require(addr != address(0), \"Invalid address!\");\n        owners[addr] = Authorization.OWNER;\n    }\n\n    function addOwner(address newOwner) external onlyOwner {\n        require(newOwner != address(0), \"Invalid address!\");\n        require(owners[newOwner] == Authorization.NONE, \"Address already an owner!\");\n        owners[newOwner] = Authorization.OWNER;\n        emit NewOwnerAdded(newOwner);\n    }\n\n    function createTransfer(uint amount, address payable to) external isValidOwner {\n        nextTransactionId++;  \n         \n        transactions[nextTransactionId]= Transaction({\n            id:nextTransactionId,\n            amount: amount,\n            to: to,\n            tokenContract: address(tokenContract),\n            createdBy: msg.sender,\n            signatureCount: 0,\n            completed: false\n        });\n\n        _pendingTransactions.push(nextTransactionId);\n        emit TransactionCreated(nextTransactionId, msg.sender, to, amount);\n    }\n\n    function deactivateOwner(address addr) external onlyOwner {\n        require(addr != address(0), \"Invalid address!\");\n        owners[addr] = Authorization.DEACTIVATED;\n    }\n\n    function executeTransaction(uint id) external isValidOwner {\n        require(transactions[id].to != address(0),\n        \"Transaction does not exist!\");\n        require(transactions[id].completed == false,\n        \"Transactions has already been completed!\");\n        require(transactions[id].signatureCount >= quorum,\n        \"Transaction requires more signatures!\");\n        require(tokenContract.balanceOf(address(this)) >= transactions[id].amount,\n        \"Insufficient balance.\");\n\n        transactions[id].completed = true;\n        address payable to = transactions[id].to;\n        uint amount = transactions[id].amount;\n        tokenContract.transfer(to, amount);\n        completed.push(id);\n        emit TransactionCompleted(id, to, amount, transactions[id].createdBy, msg.sender);\n    }\n         \n    function setTokenContract(BrazilCarbonCredit _tokenContract) external onlyOwner canContractSet {\n        tokenContract = _tokenContract;\n        contractSeted = true;\n    }\n\n    function signTransation(uint id) external isValidOwner {\n        require(transactions[id].to != address(0),\n        \"Transaction does not exist!\");\n        require(transactions[id].createdBy != msg.sender,\n        \"Transaction creator cannot sign transaction!\");\n        require(signatures[id][msg.sender] == false,\n        \"Cannot sign transaction more than once!\");\n        \n        Transaction storage transaction = transactions[id];\n        signatures[id][msg.sender] = true;\n        transaction.signatureCount++; \n        emit TransactionSigned(id, msg.sender);\n    }\n\n    function withdraw() external onlyOwner {\n        require(address(this).balance > 0, \"Insuficient funds!\");\n        uint amount = address(this).balance;\n        // sending to prevent re-entrancy attacks\n        address(this).balance - amount;\n        payable(msg.sender).transfer(amount);\n    }\n\n    // External functions that are view\n    function getBalance() external view returns(uint) {\n        return address(this).balance;\n    }\n\n    function getPendingTransactions() external view returns(uint[] memory){\n        return _pendingTransactions;\n    }\n\n    function getCompletedTransactions() public view returns(uint[] memory){\n        return completed;\n    }\n\n    function getTokenBalance() external view returns(uint) {\n        return tokenContract.balanceOf(address(this));\n    }\n\n    function getTransactionSignatureCount(uint transactionId) external view returns(uint) {\n        require(transactions[transactionId].to != address(0),\n        \"Transaction does not exist!\");\n        return transactions[transactionId].signatureCount;\n    }\n}\n",
  "sourcePath": "/home/dev/Playground/brazil-carbon-credit/contracts/MultiSigWalletBCC.sol",
  "compiler": {
    "name": "solc",
    "version": "0.8.10+commit.fc410830.Emscripten.clang"
  },
  "schemaVersion": "3.4.1",
  "updatedAt": "2022-01-13T22:38:26.258Z",
  "devdoc": {
    "kind": "dev",
    "methods": {
      "owner()": {
        "details": "Returns the address of the current owner."
      },
      "renounceOwnership()": {
        "details": "Leaves the contract without owner. It will not be possible to call `onlyOwner` functions anymore. Can only be called by the current owner. NOTE: Renouncing ownership will leave the contract without an owner, thereby removing any functionality that is only available to the owner."
      },
      "transferOwnership(address)": {
        "details": "Transfers ownership of the contract to a new account (`newOwner`). Can only be called by the current owner."
      }
    },
    "version": 1
  },
  "userdoc": {
    "kind": "user",
    "methods": {},
    "version": 1
  }
}